{
  "_format": "hh-sol-artifact-1",
  "contractName": "Raffle",
  "sourceName": "contracts/Raffle.sol",
  "abi": [
    {
      "inputs": [
        {
          "internalType": "address",
          "name": "vrfCoordinatorV2",
          "type": "address"
        },
        {
          "internalType": "uint256",
          "name": "entranceFee",
          "type": "uint256"
        },
        {
          "internalType": "bytes32",
          "name": "gaslane",
          "type": "bytes32"
        },
        {
          "internalType": "uint64",
          "name": "subscriptionId",
          "type": "uint64"
        },
        {
          "internalType": "uint32",
          "name": "callbackGasLimit",
          "type": "uint32"
        }
      ],
      "stateMutability": "nonpayable",
      "type": "constructor"
    },
    {
      "inputs": [
        {
          "internalType": "address",
          "name": "have",
          "type": "address"
        },
        {
          "internalType": "address",
          "name": "want",
          "type": "address"
        }
      ],
      "name": "OnlyCoordinatorCanFulfill",
      "type": "error"
    },
    {
      "inputs": [],
      "name": "Raffle_TransferFailed",
      "type": "error"
    },
    {
      "inputs": [],
      "name": "Raffle__NotEnoughEthEntered",
      "type": "error"
    },
    {
      "anonymous": false,
      "inputs": [
        {
          "indexed": true,
          "internalType": "address",
          "name": "player",
          "type": "address"
        }
      ],
      "name": "RaffleEvent",
      "type": "event"
    },
    {
      "anonymous": false,
      "inputs": [
        {
          "indexed": true,
          "internalType": "uint256",
          "name": "requestId",
          "type": "uint256"
        }
      ],
      "name": "RequestRaffleWinner",
      "type": "event"
    },
    {
      "anonymous": false,
      "inputs": [
        {
          "indexed": true,
          "internalType": "address",
          "name": "winner",
          "type": "address"
        }
      ],
      "name": "WinnerPicked",
      "type": "event"
    },
    {
      "inputs": [],
      "name": "enterRaffle",
      "outputs": [],
      "stateMutability": "payable",
      "type": "function"
    },
    {
      "inputs": [],
      "name": "getEntranceFee",
      "outputs": [
        {
          "internalType": "uint256",
          "name": "",
          "type": "uint256"
        }
      ],
      "stateMutability": "view",
      "type": "function"
    },
    {
      "inputs": [
        {
          "internalType": "uint256",
          "name": "index",
          "type": "uint256"
        }
      ],
      "name": "getPlayer",
      "outputs": [
        {
          "internalType": "address",
          "name": "",
          "type": "address"
        }
      ],
      "stateMutability": "view",
      "type": "function"
    },
    {
      "inputs": [
        {
          "internalType": "uint256",
          "name": "requestId",
          "type": "uint256"
        },
        {
          "internalType": "uint256[]",
          "name": "randomWords",
          "type": "uint256[]"
        }
      ],
      "name": "rawFulfillRandomWords",
      "outputs": [],
      "stateMutability": "nonpayable",
      "type": "function"
    },
    {
      "inputs": [],
      "name": "requestRandomWinner",
      "outputs": [],
      "stateMutability": "nonpayable",
      "type": "function"
    }
  ],
  "bytecode": "0x61014060405234801561001157600080fd5b50604051610e0a380380610e0a83398181016040528101906100339190610234565b848073ffffffffffffffffffffffffffffffffffffffff1660808173ffffffffffffffffffffffffffffffffffffffff1681525050508360a081815250508473ffffffffffffffffffffffffffffffffffffffff1660c08173ffffffffffffffffffffffffffffffffffffffff16815250508260e081815250508167ffffffffffffffff166101008167ffffffffffffffff16815250508063ffffffff166101208163ffffffff168152505050505050506102af565b600080fd5b600073ffffffffffffffffffffffffffffffffffffffff82169050919050565b6000610119826100ee565b9050919050565b6101298161010e565b811461013457600080fd5b50565b60008151905061014681610120565b92915050565b6000819050919050565b61015f8161014c565b811461016a57600080fd5b50565b60008151905061017c81610156565b92915050565b6000819050919050565b61019581610182565b81146101a057600080fd5b50565b6000815190506101b28161018c565b92915050565b600067ffffffffffffffff82169050919050565b6101d5816101b8565b81146101e057600080fd5b50565b6000815190506101f2816101cc565b92915050565b600063ffffffff82169050919050565b610211816101f8565b811461021c57600080fd5b50565b60008151905061022e81610208565b92915050565b600080600080600060a086880312156102505761024f6100e9565b5b600061025e88828901610137565b955050602061026f8882890161016d565b9450506040610280888289016101a3565b9350506060610291888289016101e3565b92505060806102a28882890161021f565b9150509295509295909350565b60805160a05160c05160e0516101005161012051610afe61030c600039600061036f0152600061034c0152600061032b015260006102ef01526000818161010501526101eb01526000818161012b015261017f0152610afe6000f3fe60806040526004361061004a5760003560e01c806309bc33a71461004f5780631fe543e31461007a5780632cfcc539146100a3578063522a1f0b146100ad578063e55ae4e8146100c4575b600080fd5b34801561005b57600080fd5b50610064610101565b6040516100719190610624565b60405180910390f35b34801561008657600080fd5b506100a1600480360381019061009c91906107d8565b610129565b005b6100ab6101e9565b005b3480156100b957600080fd5b506100c26102eb565b005b3480156100d057600080fd5b506100eb60048036038101906100e69190610834565b610425565b6040516100f891906108a2565b60405180910390f35b60007f0000000000000000000000000000000000000000000000000000000000000000905090565b7f000000000000000000000000000000000000000000000000000000000000000073ffffffffffffffffffffffffffffffffffffffff163373ffffffffffffffffffffffffffffffffffffffff16146101db57337f00000000000000000000000000000000000000000000000000000000000000006040517f1cf993f40000000000000000000000000000000000000000000000000000000081526004016101d29291906108bd565b60405180910390fd5b6101e5828261046c565b5050565b7f0000000000000000000000000000000000000000000000000000000000000000341015610243576040517f066d781f00000000000000000000000000000000000000000000000000000000815260040160405180910390fd5b6000339080600181540180825580915050600190039060005260206000200160009091909190916101000a81548173ffffffffffffffffffffffffffffffffffffffff021916908373ffffffffffffffffffffffffffffffffffffffff1602179055503373ffffffffffffffffffffffffffffffffffffffff167f990280197201aaf0df6f5ba766ce810e358910eb4c57d3c51d4743eedd6fee6160405160405180910390a2565b60007f000000000000000000000000000000000000000000000000000000000000000073ffffffffffffffffffffffffffffffffffffffff16635d3b1d307f00000000000000000000000000000000000000000000000000000000000000007f000000000000000000000000000000000000000000000000000000000000000060037f000000000000000000000000000000000000000000000000000000000000000060016040518663ffffffff1660e01b81526004016103b095949392919061095e565b6020604051808303816000875af11580156103cf573d6000803e3d6000fd5b505050506040513d601f19601f820116820180604052508101906103f391906109c6565b9050807fde6349b018d6c03d837b67d9a198a6ba4842546f2295fe963fae141e5dbaef8160405160405180910390a250565b600080828154811061043a576104396109f3565b5b9060005260206000200160009054906101000a900473ffffffffffffffffffffffffffffffffffffffff169050919050565b6000808054905082600081518110610487576104866109f3565b5b60200260200101516104999190610a51565b905060008082815481106104b0576104af6109f3565b5b9060005260206000200160009054906101000a900473ffffffffffffffffffffffffffffffffffffffff16905080600160006101000a81548173ffffffffffffffffffffffffffffffffffffffff021916908373ffffffffffffffffffffffffffffffffffffffff16021790555060008173ffffffffffffffffffffffffffffffffffffffff164760405161054490610ab3565b60006040518083038185875af1925050503d8060008114610581576040519150601f19603f3d011682016040523d82523d6000602084013e610586565b606091505b50509050806105c1576040517fba31c4f300000000000000000000000000000000000000000000000000000000815260040160405180910390fd5b8173ffffffffffffffffffffffffffffffffffffffff167f5b690ec4a06fe979403046eaeea5b3ce38524683c3001f662c8b5a829632f7df60405160405180910390a25050505050565b6000819050919050565b61061e8161060b565b82525050565b60006020820190506106396000830184610615565b92915050565b6000604051905090565b600080fd5b600080fd5b61065c8161060b565b811461066757600080fd5b50565b60008135905061067981610653565b92915050565b600080fd5b6000601f19601f8301169050919050565b7f4e487b7100000000000000000000000000000000000000000000000000000000600052604160045260246000fd5b6106cd82610684565b810181811067ffffffffffffffff821117156106ec576106eb610695565b5b80604052505050565b60006106ff61063f565b905061070b82826106c4565b919050565b600067ffffffffffffffff82111561072b5761072a610695565b5b602082029050602081019050919050565b600080fd5b600061075461074f84610710565b6106f5565b905080838252602082019050602084028301858111156107775761077661073c565b5b835b818110156107a0578061078c888261066a565b845260208401935050602081019050610779565b5050509392505050565b600082601f8301126107bf576107be61067f565b5b81356107cf848260208601610741565b91505092915050565b600080604083850312156107ef576107ee610649565b5b60006107fd8582860161066a565b925050602083013567ffffffffffffffff81111561081e5761081d61064e565b5b61082a858286016107aa565b9150509250929050565b60006020828403121561084a57610849610649565b5b60006108588482850161066a565b91505092915050565b600073ffffffffffffffffffffffffffffffffffffffff82169050919050565b600061088c82610861565b9050919050565b61089c81610881565b82525050565b60006020820190506108b76000830184610893565b92915050565b60006040820190506108d26000830185610893565b6108df6020830184610893565b9392505050565b6000819050919050565b6108f9816108e6565b82525050565b600067ffffffffffffffff82169050919050565b61091c816108ff565b82525050565b600061ffff82169050919050565b61093981610922565b82525050565b600063ffffffff82169050919050565b6109588161093f565b82525050565b600060a08201905061097360008301886108f0565b6109806020830187610913565b61098d6040830186610930565b61099a606083018561094f565b6109a7608083018461094f565b9695505050505050565b6000815190506109c081610653565b92915050565b6000602082840312156109dc576109db610649565b5b60006109ea848285016109b1565b91505092915050565b7f4e487b7100000000000000000000000000000000000000000000000000000000600052603260045260246000fd5b7f4e487b7100000000000000000000000000000000000000000000000000000000600052601260045260246000fd5b6000610a5c8261060b565b9150610a678361060b565b925082610a7757610a76610a22565b5b828206905092915050565b600081905092915050565b50565b6000610a9d600083610a82565b9150610aa882610a8d565b600082019050919050565b6000610abe82610a90565b915081905091905056fea2646970667358221220a3c92f699a4be9fb36706e33a93d773002669b4c4cbb583f724eb557b032c23264736f6c634300081b0033",
  "linkReferences": {},
  "deployedLinkReferences": {}
}